:100000009DECFEF0A2ECFCF000ECFDF0A1ECFDF0AC
:0400100082EF00F08B
:1001000089ECFDF016ECFCF0040E0E6F10EE0FF013
:1001100088ECFFF0CFECFEF00AECFDF018EFFDF0FC
:1001200088ECFFF0E0ECFEF04DECFCF00DECFEF0A6
:1001300082EF00F088ECFFF0EFECFEF024ECFCF036
:10014000C2ECFCF01BECFEF04DECFCF088ECFFF098
:10015000FEECFEF0CAECFCF00B6F32ECFCF0410E52
:100160000B63B5EF00F082EF00F0420E0B63AAEFD5
:0601700000F02EEFFDF08F
:020000040001F9
:10F80E0030303030303132333435363738393132BA
:10F81E003346343536453738394441304243140E79
:10F82E002B6F996A9068020EEAECFFF0906A120E46
:10F83E00EAECFFF02B2FF5D71200140E2B6F996AFE
:10F84E009068010EEAECFFF0906A130EEAECFFF0FE
:10F85E002B2FF5D71200FF0E286FFF0E296F100EFB
:10F86E002A6F5FECFCF01200FF0E286FFF0E296F5F
:10F87E00010E2A6F5FECFCF01200FF0E286FFF0ED8
:10F88E00296F050E2A6F5FECFCF01200FF0E286F39
:10F89E00FF0E296F400E2A6F5FECFCF01200FF0E78
:10F8AE00286FFF0E296F520E2A6F5FECFCF01200CC
:10F8BE00282F5FEFFCF0292F5FEFFCF02A2F5FEF70
:10F8CE00FCF01200456E7465722050696E3A494E16
:10F8DE00434F525245435400556E6C6F636B6564D3
:10F8EE004C4F434B454420444F574E0041202D2052
:10F8FE0052656C6F636B42202D204E6577205069E8
:10F90E006E00456E746572204E65772050696E3AB2
:10F91E0052652D656E7465722050696E3A0050699D
:10F92E006E204163636570746564446F204E6F741E
:10F93E00204D617463680F01538D00018D6AF00EC6
:10F94E00966E3BECFCF005EE00F0010EF86EF80E34
:10F95E00F76E1C0EF66E100E166E0900F5CFEEFF4A
:10F96E00162EFBD71200FF0E05EE00F0E92AE92A4B
:10F97E00E92AEF6E1200460E05EE00F0E92AE92A9A
:10F98E00E92AEF6E1200000E156FF00E966E3BEC2C
:10F99E00FCF08450965C1561CAEFFCF01B6F1B3BAC
:10F9AE00EAECFCF0040DF3CF1CF00F0E966E3BEC60
:10F9BE00FCF08450965C1B6FEAECFCF01C271C518B
:10F9CE00F3ECFCF012001BB1000C1BB3010C1BB5C9
:10F9DE00020C1BB7030C12001B6F000E176F050EE7
:10F9EE00006F1B51172717C0E9FF00C0EAFFEF5049
:10F9FE00120089ECFDF006EE00F0FF0EEE62120032
:10FA0E00BAECFCF01200CAECFCF00B6F0BC0E6FF78
:10FA1E000B51C7ECFFF032ECFCF00E2F0AEFFDF0AD
:10FA2E00120006EE00F010EE0FF0EE50E66290EFD0
:10FA3E0000F0EE50E66290EF00F0EE50E66290EFCE
:10FA4E0000F0EE50E66290EF00F09AEF00F088ECD6
:10FA5E00FFF019ECFFF0040E0E6F10EE03F00AEC3F
:10FA6E00FDF088ECFFF02AECFFF0040E0E6F10EEA6
:10FA7E0007F00AECFDF000EE03F010EE07F0EE508A
:10FA8E00E66258EFFDF0EE50E66258EFFDF0EE50F4
:10FA9E00E66258EFFDF0EE50E66258EFFDF060EFD3
:10FAAE00FDF088ECFFF04AECFFF04DECFCF02EEF91
:10FABE00FDF088ECFFF03BECFFF04DECFCF0040E9B
:10FACE00026F00EE03F0000E636E10EE00F072ECAB
:10FADE00FDF080EF00F0E1CF62FFE12AEECF61FF93
:10FAEE007F9C7F9E7F847F90F29E550E7E6EAA0E27
:10FAFE007E6E7F827FB280EFFDF0F28E022E72EF6D
:10FB0E00FDF0120088ECFFF0040E016F000E636E24
:10FB1E0010EE00F006EE00F0E1CF62FF7F9C7F9EBC
:10FB2E007F947F8000006150EE6EE12A012E93EFEC
:10FB3E00FDF012006EECFEF0010E016F000E636E12
:10FB4E0010EE04F000EE13F093ECFDF0FF0E1363D5
:10FB5E00B3EFFDF0000E136F010E016F000E636E1A
:10FB6E0010EE05F000EE14F093ECFDF0FF0E1463B2
:10FB7E00C4EFFDF0000E146F1200010E146312009C
:10FB8E00010E016F000E636E10EE06F000EE25F012
:10FB9E0093ECFDF0010E016F000E636E10EE07F098
:10FBAE0000EE26F093ECFDF0010E016F000E636E79
:10FBBE0010EE08F000EE27F093ECFDF0E7EFFDF00D
:10FBCE00010E146F00EE14F0010E026F000E636E44
:10FBDE0010EE05F072ECFDF088ECFFF05BECFFF040
:10FBEE007EECFEF06AECFFF056ECFCF054EFFEF00B
:10FBFE00000E146F00EE14F0010E026F000E636E15
:10FC0E0010EE05F072ECFDF082EF00F000EE13F056
:10FC1E00EF2A010E026F000E636E10EE04F072EC0E
:10FC2E00FDF028ECFEF0120000EE13F0000EEF6E69
:10FC3E00010E026F000E636E10EE04F072ECFDF01A
:10FC4E001200020E13651200030E136333EFFEF063
:10FC5E003FECFEF0E7EFFDF0040E13633BEFFEF01A
:10FC6E0046ECFEF0E7EFFDF04DECFEF0E7EFFDF0B9
:10FC7E00000E256F010E266F000E276F1200000E6C
:10FC8E00256F020E266F000E276F1200080E256FCD
:10FC9E00090E266F090E276F1200000E256360EF06
:10FCAE00FEF0266363EFFEF0276368EFFEF0FFEFD2
:10FCBE00FDF02507F7EFFDF02607090E256FF7EF8C
:10FCCE00FDF02707090E256F266FF7EFFDF007EE03
:10FCDE0000F0010EF86EF80EF76E120EF66E0A0EAA
:10FCEE00236E0900F5CFEEFF232EFBD71200010E77
:10FCFE00026F000E636E00EE25F010EE06F072EC51
:10FD0E00FDF0010E026F000E636E00EE26F010EE97
:10FD1E0007F072ECFDF0010E026F000E636E00EE46
:10FD2E0027F010EE08F072ECFDF012008A6AC00E99
:10FD3E00936E280EEAECFFF0300EB9ECFFF00A0ECF
:10FD4E00F1ECFFF0280EB9ECFFF00A0EF1ECFFF02B
:10FD5E00280EB9ECFFF00A0EF1ECFFF00F0EB9EC25
:10FD6E00FFF00A0EF1ECFFF0010EB9ECFFF0020EFF
:10FD7E00EAECFFF0060EB9ECFFF00A0EF1ECFFF024
:10FD8E0012000900F550C7ECFFF0222EFAD7120030
:10FD9E0004EE00F0010EF86EF80EF76ED20EF66E4F
:10FDAE000A0E226EC8ECFEF08FECFFF096ECFFF020
:10FDBE00120004EE0AF0010EF86EF80EF76EDC0E6D
:10FDCE00F66E090E226EC8ECFEF09DECFFF01200EE
:10FDDE0004EE13F0010EF86EF80EF76EE60EF66EE8
:10FDEE00080E226EC8ECFEF09DECFFF0120004EE41
:10FDFE0026F0010EF86EF80EF76EFA0EF66E0A0E7B
:10FE0E00226EC8ECFEF08FECFFF004EE30F0010E27
:10FE1E00F86EF90EF76E040EF66E0B0E226EC8EC2F
:10FE2E00FEF0120004EE3BF0010EF86EF90EF76EC6
:10FE3E00100EF66E0E0E226EC8ECFEF08FECFFF07A
:10FE4E0096ECFFF0120004EE49F0010EF86EF90E7A
:10FE5E00F76E1E0EF66E0D0E226EC8ECFEF08FECD7
:10FE6E00FFF096ECFFF0120004EE56F0010EF86E65
:10FE7E00F90EF76E2C0EF66E0C0E226EC8ECFEF01E
:10FE8E009DECFFF0120004EE62F0010EF86EF90E1A
:10FE9E00F76E380EF66E0C0E226EC8ECFEF08FEC7E
:10FEAE00FFF096ECFFF012009DECFFF004EE1BF05D
:10FEBE00010EF86EF80EF76EEE0EF66E0B0E226E4B
:10FECE00C8ECFEF012008FECFFF0275127EE00F089
:10FEDE00D926DF50C7ECFFF0265127EE00F0D926C9
:10FEEE00DF50C7ECFFF0255127EE00F0D926DF508A
:10FEFE00C7ECFFF0A4ECFFF0A4ECFFF0A4ECFFF0D5
:10FF0E001200010EB9ECFFF0020EEAECFFF0120047
:10FF1E00C00EB9ECFFF0020EEAECFFF012000F0E6D
:10FF2E00B9ECFFF0020EEAECFFF012000C0EB9EC89
:10FF3E00FFF0020EEAECFFF01200100EB9ECFFF02B
:10FF4E00020EEAECFFF01200140EB9ECFFF0020EF6
:10FF5E00EAECFFF01200216EDE50C7ECFFF0212E0E
:10FF6E00FBD71200206E20380F0B8A6E8A98D8ECC1
:10FF7E00FFF020500F0B8A6E8A98D8ECFFF012001B
:10FF8E00206E20380F0B8A6E8A88D8ECFFF0205036
:10FF9E000F0B8A6E8A88D8ECFFF00A0EF1ECFFF098
:10FFAE001200000000000000000000000000000031
:10FFBE0000008A8A0000000000000000000000001F
:10FFCE0000008A9A12001F6EFA0EF1ECFFF01F2E3F
:10FFDE00FBD712001D6E1D3A0F0E1D141E6EF00E75
:10FFEE001D16FBECFFF01200000E1D061E5AFDE260
:02FFFE001200EF
:020000040030CA
:0700000015137F7CF98B91C1
:06000800FFC0FFE0FF4015
:00000001FF
